:100000000000022051590000B5590000C94B000002
:10001000B5590000B5590000B559000000000000B6
:10002000000000000000000000000000B5590000C2
:10003000B559000000000000B5590000852B0000F4
:10004000B5590000B5590000B5590000B559000078
:10005000B559000000000000B5590000B559000076
:10006000B5590000B5590000B5590000B559000058
:10007000B5590000B5590000B5590000B559000048
:10008000B5590000B5590000B5590000B559000038
:10009000B5590000B5590000B5590000B559000028
:1000A000B5590000B5590000B5590000B559000018
:1000B000B5590000B5590000B5590000B559000008
:1000C000B5590000B5590000B5590000B5590000F8
:1000D000B5590000B55900009D2E0000B55900002B
:1000E000B5590000B5590000CD2D00008D2E00003F
:1000F000B559000000000000B5590000B5590000D6
:10010000B5590000B5590000B5590000B5590000B7
:10011000B55900006D2C0000B5590000B55900001C
:1001200015310000B5590000B5590000B55900005F
:10013000B559000000000000B559000000000000A3
:10014000B5590000B5590000B5590000B559000077
:10015000B559000000000000B5590000B559000075
:10016000B5590000B5590000B5590000B559000057
:10017000B5590000B5590000B5590000B559000047
:10018000B5590000B5590000B55900000000000045
:10019000B5590000B5590000B5590000B559000027
:1001A000B5590000B5590000B55900000000000025
:1001B000B5590000B5590000000000000000000023
:1001C000000000000000000000000000000000002F
:1001D00000000000B5590000B5590000B5590000F5
:1001E000B5590000B5590000B5590000B5590000D7
:1001F000B559000010B5054C237833B9044B13B141
:100200000448AFF300800123237010BD10050020C7
:1002100000000000D8C800000C4B43B10C480D4949
:1002200010B5AFF300800C48036823B910BD0A482D
:10023000036833B97047094B002BF7D0BDE8104075
:100240001847064B002BF5D0184700BF00000000F0
:10025000D8C8000014050020080500200000000098
:10026000154B002B08BF134B9D46A3F5803A002188
:100270008B460F461348144A121A06F010FA0F4B19
:10028000002B00D098470E4B002B00D09847002041
:10029000002104000D000D48002802D00C48AFF3E7
:1002A000008006F0CDF92000290002F097FF06F04B
:1002B000B3F900BF000008000000022000000000A9
:1002C000000000001005002034180020000000008D
:1002D00000000000012800D070470122014B1A7075
:1002E000FAE700BF9407002010B50F4C00220F4B17
:1002F0001968204603F088FE802301220021204651
:1003000003F038FF58B10221074803F02BFF084BD8
:10031000E02283F838234FF080725A6010BD054800
:1003200007F08AF8EFE700BF00000A400400002051
:1003300000E100E000B5000010B586B004460120E1
:1003400001900090029108218DF80C101168032291
:1003500006E006A8104400F80B1C090A013A52B244
:10036000002AF6DA1A68072306E006A9194401F8FC
:100370000B2C120A013B5BB2032BF6DC6A462146CA
:10038000054803F012FF08B106B010BD214603482E
:1003900006F0DEFFF8E700BF00000A40DCB4000012
:1003A000374B1B78002B6AD070B582B00022344BDB
:1003B0001A70344B5B783BB9324B9B7B7BB9314B2A
:1003C0009B7EBBB9002422E02F4B19782F4A13469D
:1003D000043A01F5C0710120FFF7AEFFECE72A4BAC
:1003E00019782B4A1346043A01F520710220FFF7D1
:1003F000A3FFE4E7244B1978264A1346043A01F593
:1004000060710320FFF798FFDCE70134E4B20B2CA6
:100410001AD804EB440213011F4AD35C002BF4D01A
:10042000210201F58451184B1E78600003191A014E
:1004300013460832184D1033201D2B442A443144F2
:10044000C0B2FFF779FFE0E702F04AFA00904FF4FC
:100450007A7200231149D1E9000105F04FFF02AB88
:1004600043F8040D084A11786A4601F5025110203C
:10047000FFF762FF0A4806F0DFFF02B070BD704769
:10048000940700202C0500200000002034050020E7
:10049000400500204C0500200C000020A80600208C
:1004A00028B5000010B5064C4CF25031204604F03F
:1004B0001DFB204604F043FB4022024B5A6010BD56
:1004C0000000084000E100E010B401240D4B1C7056
:1004D0000D4B1870080A0D4B1870C9B259700023E3
:1004E0000B490B700232D2B20A490A700A4A1370E1
:1004F0000A4A136823F03C0343F0200313605DF8BD
:10050000044B704756050020BC0700209C070020C4
:10051000980700209907002055050020000008409A
:1005200001220B4B1A700B4B187002220A4B1A70E7
:100530001144C9B2094B19700022094B1A70094ABB
:10054000136823F03C0343F020031360704700BF9F
:1005500056050020BC0700209807002099070020BE
:10056000550500200000084030B40024124D2C70C6
:10057000124D28700D0A12480570C9B24170114918
:100580000C70991CC9B210480170214605E0881C06
:10059000555C0B4C25540131C9B29942F7D3002266
:1005A0000A4B1A700A4A136823F03C0343F02003F5
:1005B000136030BC704700BF56050020BC07002008
:1005C0009C0700209807002099070020550500206F
:1005D0000000084038B5124B18700024114B1C70F5
:1005E000114B1C70114B1C70114B1C70254601E007
:1005F0000134E4B2022C11D80E4A136823F03C03F4
:1006000043F020031360022003F00EF8064B1B7822
:1006100003F0FF02002BEBD01546E9E7284638BD72
:10062000BC07002056050020540500209807002034
:100630009907002000000840024B1B78002BFBD0DC
:10064000704700BF5505002008B54FF4FA7002F05E
:10065000EBFF4420FFF7BEFF90B1174B01221A7049
:100660005A7006211973022058739A73197607225B
:100670005A7600229A7683F8242083F8252008BD34
:100680006120FFF7A7FF18B900220B4B1A7008BDB5
:10069000094B022018700121597000221A735873F7
:1006A00099731A7607205876997683F824200822C1
:1006B00083F8252008BD00BF2C050020164B1B78B1
:1006C000DBB2022B00D0704710B582B000248DF849
:1006D00000408DF8014081238DF8023003236A46E3
:1006E00010216120FFF740FF032002F09DFF8DF8ED
:1006F000044002238DF80530E3238DF806300323F0
:1007000001AA4FF48C416120FFF72EFF032002F075
:100710008BFF02B010BD00BF2C05002008B50022E1
:100720001D4B1A601D4B1B78DBB2012B03D073B33A
:10073000022B07D008BD062242F606414420FFF7EF
:10074000C3FE08BD00231A4640F202216120FFF7D4
:100750000BFFFFF771FF02216120FFF7E1FEFFF7BA
:100760006BFF0F4BDB78DBB2012B13D100231A4652
:100770004FF440716120FFF7F7FEFFF75DFF0320A4
:1007800002F052FF12216120FFF7CAFE08BD0122CC
:10079000014B1A6008BD00BF744800402C050020C2
:1007A0009C07002000000000554B1B78002B00F038
:1007B0009C8010B50022524B1A70524B1B78DBB252
:1007C000012B02D0022B50D010BD4F4A1178537824
:1007D00043EA012342F60642934200D010BD4A4B41
:1007E0009A78D87840EA02205A799C7944EA02241F
:1007F000444B58601C615B7BDBB2022B1AD0414B2F
:100800005B7EDBB2072BE9D107EE904AF8EE677A00
:1008100017EE900A05F09CFA00223C4B05F0ECFA2A
:1008200033A3D3E9002305F011FC05F017FD354B88
:10083000586110BD07EE900AF8EE677A17EE900A3D
:1008400005F086FA2CA3D3E9002305F0D5FA28A3F6
:10085000D3E9002305F0FAFB00222D4B05F018F92F
:1008600005F0FCFC274B9860C9E7274A11785378BC
:1008700043EA0123B3F5407FB0D113469078D27894
:1008800042EA0022587940EA0222987940EA02209E
:10089000197A5A7A42EA0121DA7A42EA0122197B6C
:1008A00041EA0224997BDA7B42EA01215A7C42EA3E
:1008B00001229B7C43EA0222124B5B7BDBB2022BC0
:1008C0000DD0104B5B7EDBB2072B0BD00D4B93F89A
:1008D0002530DBB2082B81D10A4B18627EE7094B29
:1008E0009C60EEE7074B5A61F0E77047AFF300807A
:1008F00000000000E0FFEF400000000000E0654065
:10090000550500202C0500209C07002000005940C0
:100910000080464010B582B0074C084B0093082376
:100920000C220021204604F08FF9002201212046EC
:1009300004F0CEFA02B010BD001006408096980078
:100940000A4B1B7863B90A4B5B6913F0010FFAD1AC
:100950000123084A1360064A1062044A1370704764
:10096000034B5B6913F4003FFAD1F1E7BF070020A6
:1009700000100640C44800400C4B1B787BB10C4B68
:100980005B6913F0010FFAD100220A4B1A600023B1
:10099000084A1360064A1062044A13707047044BF9
:1009A0005B6913F4003FFAD1F1E700BFBF070020F5
:1009B00000100640C448004008B5E220FFF7DCFF05
:1009C0000A2002F031FE2C20FFF7D6FF2E20FFF781
:1009D000D3FF2F20FFF7D0FF0A2002F025FEF820DA
:1009E000FFF7CAFF0020FFF7C7FF2520FFF7C4FF6E
:1009F0008120FFF7C1FF1B20FFF7BEFFA220FFF7FA
:100A0000BBFFC820FFF7B8FFA020FFF7B5FFA42069
:100A1000FFF7B2FFA620FFF7AFFF4020FFF7ACFFC4
:100A2000AF20FFF7A9FF08BD08B540F0B000FFF701
:100A3000A3FF08BD10B50446000940F01000FFF701
:100A40009BFF04F00F00FFF797FF10BD10B50446A1
:100A50005039C8B2FFF790FF200940F01000FFF7AF
:100A60008BFF04F00F00FFF787FF10BDF8B50746B6
:100A70000E46D5B2203DEDB2832806D9224B1B7815
:100A8000102B0CD00136F6B200271F4B1B78102B11
:100A900009D031463846FFF7D9FF002430E002364E
:100AA000F6B20027F1E731463846FFF7CFFF0024C2
:100AB00007E004EB0513154AD05CFFF741FF013452
:100AC000E4B2072CF5D9711CC9B23846FFF7BEFF56
:100AD000002408E004EB051308330C4AD05CFFF750
:100AE0002FFF0134E4B2072CF4D9F8BD05EB450320
:100AF0005A00074B1344185DFFF722FF0134E4B29C
:100B0000052CF3D9F8BD00BFBD07002008BD0000CB
:100B1000E0BA0000F8B505460E46174600240AE084
:100B20000835EDB213E00635EDB210E00236F6B24C
:100B300000250134E4B23A578AB131462846FFF71E
:100B400095FF074B1B78102BEAD0082BEBD07C2DA0
:100B5000EFD9102BEAD00136F6B20025E9E7F8BD4F
:100B6000BD07002038B5002508E00020FFF7E8FEAB
:100B70000134E4B2832CF8D90135EDB2072D07D842
:100B80002846FFF751FF0020FFF754FF0024F1E74C
:100B900038BD00000B2807D90C280CD00D280ED02A
:100BA0000E2810D00020704700EB40000301084AD7
:100BB000D05CC0B27047074B5878C0B27047054B45
:100BC000987BC0B27047034B987EC0B2704700BF9D
:100BD0000C0000202C05002008B50D4A13780133C5
:100BE000DBB213700E2B02D90022094B1A70084B8E
:100BF0001878FFF7CFFF50B9054A13780133DBB2FD
:100C000013700E2BF3D90022014B1A70EFE708BDC9
:100C1000BE07002008B50B460B2804D9054A03CAB5
:100C20001860596008BD02460349184606F012FCD8
:100C300008BD00BF70B5000068B5000070B59CB07D
:100C4000FFF790FF344D2A78344914A806F002FCCF
:100C5000334C1023237014AA00210F20FFF75AFFF2
:100C60002A7842F080022F4914A806F0F3FB0823EB
:100C7000237014AA02210020FFF74CFF01F030FE80
:100C80000246294914A806F0E5FB14AA02214220D5
:100C9000FFF740FF254C0CA92078FFF7BBFF237816
:100CA0000B2B18D90C2B21D00D2B26D00E2B2BD093
:100CB00004AB0293304605F04BF8CDE900010CAAD5
:100CC0001B4914A806F0C6FB14AA03210020FFF755
:100CD00021FF1CB070BD17495A00D41820010844E8
:100CE0000669407D04A902F0B1FCE1E7124B9E6861
:100CF000587B04A902F0AAFCDAE70F4B5E69587E24
:100D000004A902F0A3FCD3E70B4B1E6A93F825005D
:100D100004A902F09BFCCBE7000000203CB50000DA
:100D2000BD07002048B5000054B50000BE070020F4
:100D300060B500000C0000202C0500200000000021
:100D40009D4B93F90030B3B99C4B93F900303BB9FC
:100D50009B4B1B78052B05D80133994A13707047BC
:100D6000012B00D07047974B1B78022BFAD8013328
:100D7000944A13707047934A1278012A13D070B5C1
:100D800012B1022A25D070BD012B05D18B4B93F9EE
:100D9000003013B1012B03D070BD02F0B1FA70BD69
:100DA00002F0AEFA70BD012B02D0022B05D07047C5
:100DB000854A13685B0013607047844A13780133D7
:100DC000DBB2137013F0800FCCD07F227F4B1A70F0
:100DD0007047013B042BDFD8DFE803F0032C548776
:100DE000B400764B93F9003053B9794A1378013344
:100DF0005BB213700B2BCFDD0B22754B1A7070BDDD
:100E0000012BC9D1724B93F900305A001A441101D9
:100E1000704A0A44917D0131C9B29175927DD2B276
:100E2000012AB9D903EB43031A016A4B1344012287
:100E30009A7570BD614B93F90030CBB1012BABD1EA
:100E4000634B93F900104B000B441A01614B1344A0
:100E50001A7D0132D2B21A751B7DDBB2082B9BD9E9
:100E600001EB41010A015B4B134408221A7570BD66
:100E7000574B93F9003003EB43031A010121554B03
:100E8000995470BD4D4B93F90030C3B9504B93F951
:100E900000104B000B441A014E4B13445A7D013293
:100EA000D2B25A755B7DDBB2082B7FF675AF01EBD2
:100EB00041010A01474B134408225A7570BD012BAA
:100EC0007FF46AAF424B93F90000424A43001C187A
:100ED00021010C461144D1ED067AB7EE007A77EE87
:100EE000877A2244C2ED067A70BD344B93F9003004
:100EF000ABB1012B7FF450AF354B93F90000354A6D
:100F000043001C1821010C461144D1ED087AB7EEBC
:100F1000007A77EE877A2244C2ED087A70BD2C4BB6
:100F200093F900002B4A43001C1821010C46114480
:100F3000D1ED077AB7EE007A77EE877A2244C2EDD8
:100F4000077A70BD1D4B93F90030CBB1012B7FF4B4
:100F500023AF1F4B93F900601E4D7400A2191301BB
:100F60002B44986A04F0F4FE11A3D3E9002304F0A3
:100F700043FF05F073F9344423011D44A8620BE7D5
:100F8000134B93F90060134D7400A21913012B4405
:100F9000586A04F0DDFE06A3D3E9002304F02CFF19
:100FA00005F05CF9344423011D44686270BD00BF44
:100FB000CDCCCCCCCCCCF03FC2070020C107002068
:100FC00057050020580500200400002000000020E4
:100FD000590500200C000020974B93F90030ABB965
:100FE000964B93F9003033B9954B1B782BB1013BED
:100FF000934A13707047012B00D07047914B1B78B8
:10100000002BFAD0013B8F4A137070478D4A12783B
:10101000012A13D070B512B1022A21D070BD012B64
:1010200005D1864B93F9003013B1012B03D070BD6D
:1010300002F066F970BD02F063F970BD012B02D0B9
:10104000022B05D07047804A13685B081360704715
:101050007E4B1B78022BD0D9013B7C4A1370704722
:10106000013B042BE3D8DFE803F003295081AE00F5
:10107000724B93F9003043B9754B93F90030002B54
:10108000D5DD013B724A137070BD012BCFD1704B7F
:1010900093F9003003EB430211016E4A0A44927D3A
:1010A000002AC4D06B485900CC18220114460244CF
:1010B000927D013AD2B22044827570BD5F4B93F9A4
:1010C0000030C3B1012BB2D1614B93F9003003EB77
:1010D000430211015F4A0A44127D002AA7D05D48ED
:1010E0005900CC18220114460244127D013AD2B2B2
:1010F0002044027570BD564B93F9003003EB430357
:101100001A010021534B995470BD4C4B93F9003098
:10111000B3B94F4B93F9003003EB430211014D4A31
:101120000A44527D002A82D04A485900CC18220134
:1011300014460244527D013AD2B22044427570BD39
:10114000012B7FF474AF424B93F90000414A4300F6
:101150001C1821010C461144D1ED067AB7EE007A35
:1011600077EEC77A2244C2ED067A70BD334B93F90D
:101170000030ABB1012B7FF45AAF354B93F900002F
:10118000344A43001C1821010C461144D1ED087A61
:10119000B7EE007A77EEC77A2244C2ED087A70BDC6
:1011A0002B4B93F900002B4A43001C1821010C46DD
:1011B0001144D1ED077AB7EE007A77EEC77A224470
:1011C000C2ED077A70BD1D4B93F90030CBB1012BF6
:1011D0007FF42DAF1E4B93F900601E4D7400A219D1
:1011E00013012B44986A04F0B3FD11A3D3E9002343
:1011F00004F002FE05F032F8344423011D44A862D5
:1012000015E7134B93F90060124D7400A2191301F6
:101210002B44586A04F09CFD05A3D3E9002304F095
:10122000EBFD05F01BF8344423011D44686270BDDA
:10123000666666666666EE3FC2070020C10700204C
:101240005705002058050020040000200000002061
:10125000590500200C00002000B583B00DF10700F7
:1012600002F07CFB60B93A4B1B7883B99DF80720EC
:101270001B2A08D09DF807302B2B63D02D2B64D070
:1012800003B05DF804FB0133314A1370F2E7012B20
:101290000FD0022BEED19DF80730412B15D0422BF9
:1012A00022D0432B31D0442B3DD00022284B1A7042
:1012B000E0E79DF807205B2A03D00022244B1A7038
:1012C000D8E70133224A1370D4E7224A1378013B4E
:1012D0005BB21370002B03DB00221D4B1A70C9E7B1
:1012E00000221C4B1A70F7E71A4A137801335BB2DD
:1012F0001370194A92F90020934202DB013A154B10
:101300001A700022124B1A70B4E7144A1378013392
:101310005BB21370012B02DD0122104B1A70002208
:101320000B4B1A70A6E70D4A1378013B5BB21370A2
:10133000002B03DB0022064B1A709BE70022074BB1
:101340001A70F7E7FFF7FCFC9AE7FFF745FE97E70F
:101350005A050020C2070020C0070020C107002056
:1013600008B5034802F01EFB024802F01BFB08BD53
:1013700020BA00005CBA000070B5C0B0A24A07CA2B
:101380008DE80700A14B93F900301BB9A04B93F9EE
:101390000030C3B1684606F081F804460DEB000248
:1013A0009C4B03CB4DF80400516019889B78118148
:1013B0009372994B1B78062B20D8DFE803F0116855
:1013C000778898A6B400684606F068F805460DEBE5
:1013D0000004924B07CB4DF805006160A260E8E77E
:1013E000684606F05BF801460DEB00028C4B18686E
:1013F0004DF8010099889B7991809371684606F0B9
:101400004DF804460DEB0002864B03CB4DF804006B
:10141000516019889B7811819372684606F03EF8F6
:1014200002460DEB0001804B18684DF802009B88C6
:101430008B80684606F032F805460DEB00047B4BC6
:1014400007CB4DF805006160A2601B88A3816F4B3C
:1014500093F9003023B96E4B93F90030012B6BD018
:10146000684606F01BF804460DEB0002694B03CBFF
:101470004DF80400516019889B78118193726C4B70
:101480001B78032B73D8DFE803F0648E9DAB6846AE
:1014900006F004F801460DEB0002664B18684DF8A3
:1014A000010099889B7991809371A7E7684605F0C0
:1014B000F5FF05460DEB00045F4B07CB4DF805002B
:1014C0006160A2601A889B78A281A37396E7684640
:1014D00005F0E4FF06460DEB0005584C0FCC4DF827
:1014E00006006960AA60EB6023882B8286E7684665
:1014F00005F0D4FF04460DEB0002514B03CB4DF831
:10150000040051601B88138178E7684605F0C6FF28
:1015100004460DEB00024B4B03CB4DF80400516029
:101520001B7813726AE7684605F0B8FF0346464A1F
:1015300010684DF8030061E7684605F0AFFF054607
:101540000DEB0004354B07CB4DF805006160A26040
:1015500095E7684605F0A2FF01460DEB0002304B0F
:1015600018684DF8010099889B79918093716846BD
:1015700005F094FF04460DEB00022A4B03CB4DF817
:101580000400516019889B7811819372684605F0B8
:1015900085FF03462D4A10684DF80300684602F0A7
:1015A00001FA40B070BD684605F078FF01460DEBCA
:1015B0000002204B18684DF8010099889B799180B2
:1015C0009371D4E7684605F069FF06460DEB000508
:1015D0001F4C0FCC4DF806006960AA60EB60C6E7AF
:1015E000684605F05BFF06460DEB0005194C0FCC75
:1015F0004DF806006960AA60EB6003CC2861696160
:1016000023782B76B3E700BF0CB80000C207002098
:10161000C107002024B800005705002018B80000BA
:1016200030B8000080B800008CB8000094B800000A
:101630005805002038B8000040B8000050B800003D
:1016400064B8000070B800007CB80000D0B800009A
:10165000A4B80000B4B800002DE9F047CEB0874828
:1016600002F0A0F9864C607D0AAD294601F0EEFF3C
:1016700094F8450006AE314601F0E8FF2069276C7A
:1016800004F066FB804689460496384604F060FB09
:10169000CDE902017B4F0197009542464B467A49BE
:1016A0000EA805F0D7FE0EA802F07CF994F875009C
:1016B000294601F0CBFF94F8A500314601F0C6FFA2
:1016C000206FD4F8A0A004F043FB8046894604961E
:1016D000504604F03DFBCDE90201019700954246DA
:1016E0004B466A490EA805F0B5FE0EA802F05AF95D
:1016F00094F8D500294601F0A9FF94F80501314678
:1017000001F0A4FFD4F8D000D4F800A104F020FB2D
:10171000804689460496504604F01AFBCDE9020142
:101720000197009542464B4659490EA805F092FE96
:101730000EA802F037F994F83501294601F086FF2A
:1017400094F86501314601F081FFD4F83001D4F8F6
:1017500060A104F0FDFA804689460496504604F0E4
:10176000F7FACDE902010197009542464B464949F7
:101770000EA805F06FFE0EA802F014F994F895017A
:10178000294601F063FF94F8C501314601F05EFF80
:10179000D4F89001D4F8C0A104F0DAFA8046894662
:1017A0000496504604F0D4FACDE902010197009561
:1017B00042464B4638490EA805F04CFE0EA802F0F2
:1017C000F1F894F8F501294601F040FF94F825025C
:1017D000314601F03BFFD4F8F001D4F8204204F088
:1017E000B7FA804689460496204604F0B1FACDE95E
:1017F00002010197009542464B4628490EA805F084
:1018000029FE0EA802F0CEF8254802F0CBF8254CB0
:10181000607B294601F01AFF607E314601F016FF19
:10182000A068D4F814A004F093FA80468946049680
:10183000504604F08DFACDE9020101970095424629
:101840004B4619490EA805F005FE0EA802F0AAF8AD
:1018500094F82500294601F0F9FE206A04F078FA90
:10186000009502460B4611490EA805F0F3FD0EA89F
:1018700002F098F84EB0BDE8F08700BFC0B5000098
:101880000C0000208CB80000CCB50000E8B50000CA
:1018900004B6000020B600003CB6000058B60000B8
:1018A00074B600002C05002090B60000B8B6000009
:1018B0002DE9F047CEB07F4802F074F87E4C207DD1
:1018C0000AAD294601F0C2FE94F8440006AE314646
:1018D00001F0BCFEA068A76B04F03AFA8046894686
:1018E0000496384604F034FACDE90201734F0197AB
:1018F000009542464B4672490EA805F0ABFD0EA876
:1019000002F050F894F87400294601F09FFE94F814
:10191000A400314601F09AFEA06ED4F898A004F01D
:1019200017FA804689460496504604F011FACDE92C
:1019300002010197009542464B4662490EA805F008
:1019400089FD0EA802F02EF894F8D400294601F083
:101950007DFE94F80401314601F078FED4F8C80009
:10196000D4F8F8A004F0F4F980468946049650466D
:1019700004F0EEF9CDE902010197009542464B468D
:1019800051490EA805F066FD0EA802F00BF894F878
:101990003401294601F05AFE94F86401314601F001
:1019A00055FED4F82801D4F858A104F0D1F98046A6
:1019B00089460496504604F0CBF9CDE9020101971F
:1019C000009542464B4641490EA805F043FD0EA83E
:1019D00001F0E8FF94F89401294601F037FE94F8ED
:1019E000C401314601F032FED4F88801D4F8B8A120
:1019F00004F0AEF9804689460496504604F0A8F9F2
:101A0000CDE902010197009542464B4630490EA8A8
:101A100005F020FD0EA801F0C5FF94F8F401294659
:101A200001F014FE94F82402314601F00FFED4F8C0
:101A3000E801D4F8184204F08BF9804689460496F0
:101A4000204604F085F9CDE9020101970095424650
:101A50004B4620490EA805F0FDFC0EA801F0A2FFA0
:101A60001D4801F09FFF1D4C207B294601F0EEFD33
:101A7000207E314601F0EAFD6268236902960193F7
:101A800000972B4616490EA805F0E4FC0EA801F0BD
:101A900089FF94F82400294601F0D8FDE2692B461D
:101AA00010490EA805F0D6FC0EA801F07BFF4EB041
:101AB000BDE8F087C0B500000C0000208CB8000025
:101AC000CCB50000E8B5000004B6000020B6000068
:101AD0003CB6000058B6000074B600002C0500208B
:101AE00088B50000B0B500002DE9F047CEB06C48D5
:101AF00001F058FF6B4C207D0AAD294601F0A6FD90
:101B000094F8440006AE314601F0A0FDE06AE76DAE
:101B100004F01EF9804689460496384604F018F908
:101B2000CDE90201604F0197009542464B465F495F
:101B30000EA805F08FFC0EA801F034FF94F8740095
:101B4000294601F083FD94F8A400314601F07EFDA2
:101B5000D4F88C00D4F8BCA004F0FAF8804689468A
:101B60000496504604F0F4F8CDE90201019700957F
:101B700042464B464E490EA805F06CFC0EA801F0FB
:101B800011FF94F8D400294601F060FD94F8040197
:101B9000314601F05BFDD4F8EC00D4F81CA104F050
:101BA000D7F8804689460496504604F0D1F8CDE92E
:101BB00002010197009542464B463E490EA805F0AA
:101BC00049FC0EA801F0EEFE94F83401294601F01C
:101BD0003DFD94F86401314601F038FDD4F84C0124
:101BE000D4F87CA104F0B4F88046894604965046A7
:101BF00004F0AEF8CDE902010197009542464B464C
:101C00002D490EA805F026FC0EA801F0CBFE94F895
:101C10009401294601F01AFD94F8C401314601F0FF
:101C200015FDD4F8AC01D4F8DCA104F091F880469D
:101C300089460496504604F08BF8CDE902010197DD
:101C4000009542464B461D490EA805F003FC0EA820
:101C500001F0A8FE94F8F401294601F0F7FC94F88D
:101C60002402314601F0F2FCD4F80C02D4F83C42D4
:101C700004F06EF8804689460496204604F068F821
:101C8000CDE902010197009542464B460C490EA84A
:101C900005F0E0FB0EA801F085FE4EB0BDE8F08730
:101CA000C0B500000C0000208CB80000CCB50000CE
:101CB000E8B5000004B6000020B600003CB6000005
:101CC00058B6000008B5024801F06CFE08BD00BF20
:101CD000D4B700000B4601280DD030B1022810D037
:101CE0000B4A03CA1860596070470A4A10680860B6
:101CF00012791A717047084A1068086092888A80C1
:101D00007047064A1068086092888A80704700BF52
:101D1000A0BA000088BA000090BA000098BA00008B
:101D200010B5C6B04FF47A7200233049D1E90001F2
:101D300004F0E4FA2E4B1A8801902E4C00942023D4
:101D400092B22D4906A805F085FB06A801F02AFEEF
:101D50002A4B1A882A4BD3F81831019300944FF478
:101D6000805392B2274906A805F074FB06A801F03B
:101D700019FE254B1A694FF4E13300932346C2F351
:101D80004232224906A805F065FB06A801F00AFECA
:101D90001F4B187802A9FFF79DFF02AA1D4906A84C
:101DA00005F058FB06A801F0FDFD1B494B680A68C9
:101DB00089680091194906A805F04CFB06A801F0B6
:101DC000F1FD00F08DFD0246154906A805F042FB25
:101DD00006A801F0E7FD134B134A144906A805F0C5
:101DE00039FB06A801F0DEFD46B010BDA8060020B4
:101DF000BC0600208CB80000C8B60000B406002065
:101E000000300440F4B600004040004024B7000019
:101E10002C05002050B70000FC07002064B700002C
:101E200080B70000A8B70000B4B70000C0B700003A
:101E30000B4630B101280AD00B4A03CA186059601A
:101E400070470A4A1068086012791A71704710B416
:101E5000074C07CC186059609A602188A278998154
:101E60009A735DF8044B7047A0BA000088BA00006E
:101E7000A8BA0000054B1870054B93F90030834257
:101E800002DB0138024B1870704700BFC00700200A
:101E9000C207002000B5C5B0104B93F90030012BEC
:101EA00016D00F4A6B4607CA03C323F8022B120C45
:101EB0001A700C4B6A460C4904A805F0CBFA04A82A
:101EC00001F070FD0220FFF7D5FF45B05DF804FB7F
:101ED000064A07CA8DE80700EBE700BFC2070020EB
:101EE00024B8000080B80000F8B9000018B800005D
:101EF00000B5C7B0214B93F90030012B32D0204AF6
:101F000002AB07CA03C323F8022B120C1A701D4B35
:101F10001B681D4A009202AA1C4906A805F09AFAFD
:101F200006A801F03FFD154B93F90030022B1FD09E
:101F3000134A02AB07CA03C323F8022B120C1A7010
:101F4000134B1B78104A009202AA124906A805F00A
:101F500081FA06A801F026FD0320FFF78BFF47B0AA
:101F60005DF804FB02AB0C4A07CA83E80700CEE722
:101F700002AB094A07CA83E80700E1E7C20700206D
:101F800024B800000400002080B80000D4B800008D
:101F900000000020ECB8000018B8000030B5DBB03D
:101FA000A74B93F90040012C00F03281A54A16ABF3
:101FB00007CA03C323F8022B120C1A70012C00F07D
:101FC0003381A04A12AB07CA03C323F8022B120CB9
:101FD0001A709D4D95F9003003EB43031A019B4B9A
:101FE0001344987D0EAC2146FFF722FF95F900308F
:101FF000974A0492039412A9029196490191009282
:1020000016AA95491AA805F025FA1AA801F0CAFCE3
:102010008B4B93F90040022C00F02E81894A16ABBD
:1020200007CA03C323F8022B120C1A70022C00F00B
:102030002F81844A12AB07CA03C323F8022B120C68
:102040001A70814B93F9003003EB43010A017F4979
:102050008A5C002A00F02881804A0E9203EB430339
:102060001A017A4B1344187D0AAC214601F0EEFAAE
:10207000774B0493039412AA0292764A019200933A
:102080000EAB16AA76491AA805F0E4F91AA801F0D1
:1020900089FC6B4B93F90040032C00F00D81694AD9
:1020A00016AB07CA03C323F8022B120C1A70032CB9
:1020B00000F00E81634A12AB07CA03C323F8022B58
:1020C000120C1A70604D95F90030604C03EB43031D
:1020D0001A012244507D0EA901F0B8FA95F900309A
:1020E00003EB43031A011444A069594C069403F00E
:1020F0002FFECDE9040112AB0293564B01930094DD
:102100000EAB16AA57491AA805F0A4F91AA801F0AF
:1021100049FC4B4B93F90040042C00F0E580494A00
:1021200016AB07CA03C323F8022B120C1A70042C37
:1021300000F0E680434A12AB07CA03C323F8022B20
:10214000120C1A70404B93F90000404A43001C18CF
:1021500021010C461144CD692244106A3C4C08947C
:1021600003F0F6FDCDE9060112AB0493394B03935E
:102170000294284603F0ECFDCDE9000116AA3A4985
:102180001AA805F067F91AA801F00CFC2C4B93F97A
:102190000040052C00F0C0802A4A16AB07CA03C3D2
:1021A00023F8022B120C1A70052C00F0C180254A6E
:1021B00012AB07CA03C323F8022B120C1A70224B6E
:1021C00093F90000214A43001C1821010C461144D8
:1021D0004D6A2244906A1E4C089403F0B9FDCDE983
:1021E000060112AB04931B4B03930294284603F0A1
:1021F000AFFDCDE9000116AA1C491AA805F02AF97D
:102200001AA801F0CFFB0620FFF734FE5BB030BD0B
:10221000174B93F90030002B7FF4C8AE16AB154A6C
:1022200007CA83E80700C9E6114B93F90030012B78
:102230007FF4C7AE12AB0F4A07CA83E80700C8E6AF
:10224000C207002024B80000590500200C0000201F
:1022500080B800008CB8000004B900005965730014
:1022600038B9000060B9000094B90000C8B9000096
:10227000C107002018B80000334B93F90030002B41
:102280007FF4CCAE16AB314A07CA83E80700CDE62F
:102290002D4B93F90030012B7FF4CBAE12AB2B4AC0
:1022A00007CA83E80700CCE6294A1268ADF838204F
:1022B000120C8DF83A20D1E6234B93F90030002B15
:1022C0007FF4EDAE16AB214A07CA83E80700EEE6BD
:1022D0001D4B93F90030012B7FF4ECAE12AB1B4A7F
:1022E00007CA83E80700EDE6174B93F90030002B8F
:1022F0007FF415AF16AB154A07CA83E8070016E747
:10230000114B93F90030012B7FF414AF12AB0F4A3D
:1023100007CA83E8070015E70B4B93F90030002B41
:102320007FF43AAF16AB094A07CA83E807003BE7D8
:10233000054B93F90030012B7FF439AF12AB034A00
:1023400007CA83E807003AE7C107002018B8000071
:1023500034B9000008B50120FFF78CFD08BD00006E
:1023600008B5FEF7FDFFFFF707F81C4B1B78032BA2
:102370001AD8DFE803F002101316FFF78BFDFFF702
:10238000A1FC174B1B78062B25D8DFE803F01012B1
:102390001B1E21121200FFF7ABFDF0E7FFF7FEFD59
:1023A000EDE7FFF7D7FFEAE7FFF774FDE7E7FFF791
:1023B000B7FCFFF787FC0B4801F0F4FA0A4801F07C
:1023C000F1FA08BDFFF748F9F3E7FFF771FAF0E714
:1023D000FFF78AFBEDE7FFF7A3FCEAE758050020CB
:1023E0005705002078B5000080B5000038B5002101
:1023F000144802F091F900240EE0124D23464FF4E8
:1024000000322146284602F0A9F93F2221462846FB
:1024100002F0B7F90134E4B20B2CEED94FF0804250
:10242000D36943F00103D361064C3F2211212046BA
:1024300002F0A7F90323C4F8F830236D43F00C032E
:10244000236538BD00300440174A136A23F47F0324
:102450001362164BD3F8142142F00802C3F814217A
:10246000D3F8142142F00202C3F814210F4BD3F821
:10247000143113F0040FF9D008220D4B1A7000220A
:102480000C4B1A7001220C4B1A70084BD3F8D02059
:1024900042F40062C3F8D0204FF48061074A5160D3
:1024A00040F6FF725A657047000200400030044059
:1024B000C4070020F9070020F807002000E100E031
:1024C0002DE9F047002423E0DFF81CA1164656440E
:1024D000D6ED017AF8EE677A96ED067A67EEC77A5E
:1024E00017EE900A03F034FC80468946706803F0CA
:1024F0000DFC00223B4B03F0CBFA02460B46404654
:10250000494603F0A3FD03F0A9FEB0600134E4B234
:102510000B2C64D804EB44031A01334B13441B7D8A
:10252000DBB2042B32D0052B02D0012BEED1CBE74E
:10253000DFF8B4A0660033191F015744786807EE2E
:10254000900AF8EE677A17EE900A03F001FC002279
:102550004FF07C5303F050FC0022244B03F04CFC62
:1025600080468946D7ED097AB7EE007AC7EE276A2A
:1025700016EE900A03F0ECFB02460B464046494635
:1025800003F03AFC03F06AFEB860BFE7164F65003F
:102590002B191E013E44706807EE900AF8EE677A28
:1025A00017EE900A03F0D4FB00224FF07C5303F0A7
:1025B00023FC80468946D6ED097AB7EE007AC7EE4D
:1025C000276A16EE900A03F0C3FB02460B4640460C
:1025D000494603F011FC03F041FEB06096E7BDE808
:1025E000F08700BF0000E0400C00002000209C406D
:1025F00000230B2B4AD830B434E026495A00D418B3
:1026000020010844D0ED027A9D00234C2C4494ED27
:10261000007A77EE877A2148284490ED007A77EEA9
:10262000C77ADFED1F6A27EE267A77EE877ADFED2D
:102630001D6A87EEA67A1A441001014481ED037ADF
:10264000590019440801134A024494689800124939
:1026500001440C60D168114A024411600133DBB2BD
:102660000B2B0ED8104A1278002AC6D009495A00FE
:10267000D4182001084484681A4410010144CC6035
:10268000DEE70022084B1A7030BC70470022064B70
:102690001A7070470C0000208C0500205C0500209B
:1026A000000048430000494308000020F8B500241A
:1026B00034E0A2002B4B134493ED007A77EE877A37
:1026C000294B134493ED007A77EEC77AF3EE046A50
:1026D00027EE267A77EE877AF3EE056A87EEA67AFA
:1026E000224B134483ED007AAE00204F374497ED20
:1026F000000A08F039FC05EB45052A011C4B134480
:1027000083ED0B0A1B4B33441A68164B33441A6093
:102710003A68154B1E4432600134E4B20B2C1CD8CD
:102720002546620022441101114B0B44D3ED027A7D
:1027300093ED037A77EEC77A67EEA77A0D4B03EB3A
:102740008403C3ED007A0C4B1B78002BB1D0074BF0
:1027500003EB8403C3ED007AC6E70022064B1A7030
:10276000F8BD00BF4C060020EC050020BC05002091
:102770000C0000201C0600200900002000000000C2
:10278000F8B52DED028B00245BE06B002B441A01A1
:10279000474E164496ED078A306A80F0004003F0F9
:1027A000D7FA3FA3D3E9002303F050FC03F056FD12
:1027B00000EE100A08F0DEFA28EE000A96ED088A0C
:1027C000D6ED037A87EE800A08F052FB88EE000A05
:1027D00086ED040A737DDBB2022B30D1344F6E00DC
:1027E000721913013B44186903F0B2FA2EA3D3E91E
:1027F000002303F04DF903F031FD35442B011F4454
:1028000038611CE0620022441101294B0B441A7DFF
:10281000D2B25B7DDBB29A4203D0082000F066F8AA
:102820000DE0234A08461144C9680244116106E0DC
:1028300004EB44031A011E4B134400221A610134B5
:10284000E4B20B2C27D8254604EB44021301184AA6
:10285000D35C002BECD004EB44031A01144B13445B
:102860009B7D03F0FF02002BCCD0012AE7D104EBC3
:1028700044031A010E4B13445B7DDBB2032B84D05F
:102880000B4B13445B7DDBB2022B3FF47EAF082081
:1028900000F02CF8D3E7BDEC028BF8BDAFF300805D
:1028A0006666666666A27240666666666612714015
:1028B0000C00002008B5FFF7C7FD084B1B78002B64
:1028C000FBD00022054B1A70FFF7FAFDFFF790FED0
:1028D000FFF7ECFEFFF754FF08BD00BFF90700202B
:1028E000014B1868704700BFE8020020024A1368D5
:1028F00018431060704700BFE8020020024A1368C6
:1029000023EA000010607047E8020020F8B54FF09D
:1029100080435922C3F800211622C3F800218822DF
:10292000C3F80021D3F80031002BF0D002F140228F
:10293000B832136823F0F0031360012001F042FD68
:10294000012001F05DFD0021084601F075FD74488D
:1029500001F074FE734C22236363236943F4807394
:102960002361236A23F0F00343F0300323624FF026
:102970008042D36A23F4837323F0010343F4827308
:10298000D362694801F026FD684D002211462846B1
:1029900001F0BEFC284601F01DFD236A23F47F03ED
:1029A0002362634801F016FD002002F09AFA6148A4
:1029B00001F010FDA36843F08073A3605E4C002219
:1029C0002021204601F0A4FC204601F003FD072051
:1029D00001F000FD02F0F0FF584B1B68584AA2FBC3
:1029E00003239B09013BB3F1807F09D2554A536011
:1029F000F021554B83F823100023936007231360C5
:102A00001022514B83F823204FF0AC4001F0E2FC40
:102A1000002203214FF0AC4001F07AFC0023012298
:102A200002214FF4C06002F063FF4FF080440025A4
:102A3000C4F800514FF04026336823F07C533360D4
:102A4000636B9BB26363636B43F06E4343F46E034B
:102A50006363236B23F0FF032363236B43F077034C
:102A60002363E36BC3F31303E363E36BE363374F66
:102A700001224FF46041384601F0E8FF2A4640F653
:102A8000FF71384601F0E2FF7B6843F07F6343F457
:102A900070237B60A36BA563A36B43F01133A36327
:102AA000E36B1B0C1B04E363E36B43F4885343F0B9
:102AB0001103E363236C23F0FF0343F099032364C2
:102AC0002348436A43F0030343620122032101F0D8
:102AD000F2FF236B23F47F0343F42A0323630122D1
:102AE0000421304601F0B2FF1A4B1D60A36C23F4A1
:102AF0007F4323F00F0343F4884343F00403A364AC
:102B0000154C01220221204601F0A0FF636A43F028
:102B1000040363622A460F21204601F0B1FFF8BD8D
:102B200000B0710B000200409B3C8042103D80577A
:102B30001CFE0340080000400D0040660803002012
:102B4000D34D621010E000E000ED00E04040004096
:102B50008040004008480040C0400040074B002231
:102B600083F82A23102283F835232021044A82F88F
:102B70002310C02283F82623704700BF00E100E045
:102B800000ED00E02D49D1E90023013243F10003BB
:102B9000C1E900232A4B1B78002B46D0284A137822
:102BA000013BDBB213700122264B1A70264B1B78B7
:102BB0002BB93222244B1A700122244B1A70224A5C
:102BC0001378013B1370224B1B8833B94FF47A7290
:102BD0001F4B1A8001221F4B1A701D4A1388013B9C
:102BE00013801D4B1B882BB964221B4B1A800122BA
:102BF0001A4B1A70184A1388013B1380184B5B68F4
:102C000013F0080F0AD0164A536823F008035360E4
:102C10006422144B1A800022134B1A60114B1B883C
:102C20003BB90122104B1A6070470022054B1A7005
:102C3000BCE7013B0B4A1380704700BFA806002089
:102C4000B0060020A5060020F0020020A206002009
:102C5000EE020020A4060020EC020020A3060020C3
:102C600000000A40A00600207848004038B5534BC9
:102C70005C681D6914F0040F0AD004225A605B6975
:102C800013F0010F67D04D4A136943F4FA631361DF
:102C900014F0010F15D00122484B5A6015F0010FB6
:102CA0005FD115F0020F04D0444A136923F01003DA
:102CB000136115F0040F04D0404A136943F4FA631A
:102CC000136114F0080F02D008223C4B5A6014F034
:102CD000020F3FD0002C4FDB14F4803F0AD0374B5B
:102CE0004FF480325A601B6A03F00F03012B01D0AE
:102CF00002F0F6FA14F4003F4FD114F4802F0AD0FA
:102D00002E4B4FF480225A6002212D4A11701B6A0B
:102D100013F4706F48D014F4002F48D114F4801FBE
:102D200003D04FF48012254B5A6014F4001F03D0D7
:102D30004FF40012214B5A6014F4800F03D04FF46B
:102D400080021E4B5A6014F4000F03D04FF40002AF
:102D50001A4B5A6038BD194A136923F08003136176
:102D600096E71A461B6943F4FA63136102F08CFD7F
:102D70000022144B1A6094E74FF000420F4B5A6048
:102D8000114A136843F0010313601032136843F0D3
:102D90000103136002F0DCFC9EE74FF40032074BA6
:102DA0005A6002F01BFDA8E700F028FDB3E74FF4DE
:102DB0000022024B5A6000F027FDAFE700000C40F4
:102DC000B0060020040700200C050C400122284B0F
:102DD000C3F8F820274B1B7843B10022254B1A700B
:102DE000254B1B78D3B910B4002327E000230B2B0D
:102DF0000ED81F4A52F82320204830F8131089B209
:102E000011FA82F292B220F813200133DBB2EEE71E
:102E1000194A1378013BDBB21370E1E7704717489A
:102E200030F8131089B203EB43021401144A224410
:102E30005160002220F813200133DBB20B2BEED9B6
:102E40000121104B19700A4B4FF400629A65D3F8B8
:102E5000D02022F40062C3F8D0204FF480600A4AE8
:102E6000C2F88400C3F8F8105DF8044B704700BF47
:102E700000300440F8070020C4070020C8070020E5
:102E80000C000020F907002000E100E00222024BC4
:102E9000C3F8F820704700BF0030044008B5934BDA
:102EA000D9685B6913F0010F20D1082922D01029BD
:102EB00040D018294FD020296DD0282973D030292F
:102EC00000F0BA80402900F0BF80502900F0D48083
:102ED000582900F0F380864804F03AFA834A1368D0
:102EE00023F03C0343F00803136008BD7F4801F062
:102EF00021FE08BD00227F4B1A607F4B1B786BB10F
:102F00007E4B1B785B0043F00103784A93601368A3
:102F100023F03C0343F00803136008BD774B1B7894
:102F20005B00724A9360136823F03C0343F008038C
:102F3000136008BD00226F4B1A60704B1B785B005A
:102F400043F00103694A9360136823F03C0343F0A4
:102F50000803136008BD6A4B1B788BB166490B7878
:102F6000DBB25A1CD2B20A70664AD35CDBB25F4A4B
:102F70009360136823F03C0343F00803136008BD1B
:102F80005A4A136823F03C0343F0180313600122EC
:102F90005D4B1A7008BD554A136823F03C0343F09B
:102FA0001803136008BD594B1B78F3B1524B1B78C3
:102FB000DBB2012B07D94D4A136823F03C0343F0E1
:102FC0002803136008BD4C490B78DBB25A1CD2B2FF
:102FD0000A704C4AD35CDBB2444A9360136823F016
:102FE0003C0343F00803136008BD434B1A78D2B288
:102FF000434B1B78DBB29A4211D23F490B78DBB2CC
:103000005A1CD2B20A703F4AD35CDBB2374A936093
:10301000136823F03C0343F00803136008BD334AF0
:10302000136823F03C0343F0180313600123384A6C
:103030001370304A136008BD2C4A136823F03C0318
:1030400043F01803136008BD2B4B1A7801322C4B48
:103050001B78DBB29A4207DA244A136823F03C0358
:1030600043F00C03136008BD204A136823F03C03AF
:1030700043F00803136008BD1F4A1378DBB2591CE4
:10308000C9B2117019498968C9B21E48C154127871
:1030900001321B4B1B78DBB29A4207DA134A1368E2
:1030A00023F03C0343F00C03136008BD0F4A136880
:1030B00023F03C0343F00803136008BD0E490B786E
:1030C000DBB25A1CD2B20A70084A9168C9B20D48E4
:1030D000C154136823F03C0343F018031360012329
:1030E0000B4A1370034A136008BD00BF000008407C
:1030F00030C300007448004098070020BC0700203F
:10310000990700209C070020540500205605002048
:103110005505002008B52B4B1869B0F5004F07D0B6
:1031200000283ED1274BD3F86C31012B42D008BD8B
:103130005B6813F0100F1ED1224B5B6813F0080F71
:1031400022D1204B5B6813F0400F26D11D4B5B68EA
:1031500013F0800FEBD01C4804F06EF9194B41229C
:103160001A601A6822F041021A60164B1B6813F0AD
:10317000010FFAD108BD134A536823F010035360BE
:10318000124804F059F9D7E70E4A536823F00803B0
:1031900053600F4804F050F9D3E70E4804F04CF99F
:1031A000D4E7FDF797F8074801690139C9B201F082
:1031B0001CF808BD084804F03FF90022014BC3F891
:1031C0006C21B4E700000A401CC30000F8C20000F4
:1031D00004C3000010C3000028C3000008B5FFF7B7
:1031E00095FB4FF4E1312F4801F084FE2E4804F0A6
:1031F00023F900F081F9FFF7F9F800F035FBFDF74E
:1032000051F9FDF771F8FDF785FBFFF7A7FCFDF716
:103210001BFAFDF753FAFDF7CFFB17E00022234B13
:103220001A70FFF75DFB50B10022214B1A60FDF7C9
:1032300005FD204B1B78CBB1FFF792F816E0012279
:103240001B4B1A60F3E71C4B1B782BBB45F6A522E2
:103250001A4B9A6000F0BAFBFDF7FEFFFDF7A4FAE7
:10326000FDF79EF8114B1B78002BD7D1144B1B7820
:10327000002BE8D00022124B1A70FDF74FFA114ACA
:1032800013780133DBB21370022BDCD9FDF7A4FCF9
:1032900000220C4B1A70D6E70022074B1A70FFF77A
:1032A00009FBD3E70000074064C30000A20600202A
:1032B0007C480040A5060020A30600200000044032
:1032C000A4060020B106002038B504460D464FF094
:1032D00000534FF0FF324FF030614FF0404001F0AB
:1032E000EBF9234603E053F8041B044A51606219CA
:1032F0009342F8D301F0F2F938BD00BF001003404B
:103300002DE9F8434FF080435922C3F800211622DB
:10331000C3F800218822C3F80021D3F80031002B24
:10332000F0D001F0C5FA4A4A136843F0080313606D
:1033300001F0F0FA81464FF4401001F0C1FA10F0AC
:10334000010F79D1B9F1FF3F76D0484601F070FA0C
:103350004FF48051484601F01DFB3E4B984201D18D
:10336000002448E03C4804F067F868E009EB841565
:10337000DFF8F88067003A19130108EB030618F824
:103380000310284601F0CCFAB17D281D01F0C8FADF
:10339000317D05F1080001F0C3FA717D05F10C00E3
:1033A00001F0BEFA3B191E011836464456F8041BBC
:1033B00005F1100001F0B4FA316805F1140001F0D4
:1033C000AFFA3B191E012036464456F8041B05F19E
:1033D000180001F0A5FA316805F11C0001F0A0FA0F
:1033E00027443B01283358F8031005F1200001F071
:1033F00097FA0134E4B20B2CB8D9184B196809F5C7
:10340000407001F08DFA164B197809F5417001F002
:1034100087FA4FF480614846FFF756FF044601469D
:10342000104803F095FF214609F5806001F078FA15
:103430000120FFF763FA02E00B4803F0FDFF01F003
:10344000AFF900224FF08043C3F80021BDE8F883B4
:1034500000C00040FFFF1FA144C400000400002082
:103460000000002068C400007CC400000C000020A4
:10347000F0B482B01C4B5E69002328E099017218F9
:103480007758003718BF012718485C00E1180D0174
:10349000411947555568EDB28D759568EDB20D75BA
:1034A000D568EDB24D75156901958D615569019528
:1034B000CD61956901950D62D56901954D62116ADD
:1034C0000191E2181401204481620133DBB20B2B1D
:1034D000D4D9D6F80023064B1A60D6F80423054B3E
:1034E0001A7002B0F0BC704700C000400C00002011
:1034F000040000200000002038B54FF0804359221E
:10350000C3F800211622C3F800218822C3F8002145
:10351000D3F80031002BF0D001F0CAF9002008E008
:103520004FF0FF33334A1360334A42F824300130FE
:10353000C0B202281ED80446304B1B68304AA2FB9A
:103540000323DB085B0000212A4A11602D4A042571
:10355000D560850055609160012111615A1E002BD4
:10356000DED0284B1969134611F0010FF6D1254B17
:103570009B68D9E701F0CEF904464FF4401001F002
:103580009FF910F0010F1BD1B4F1FF3F18D04FF499
:1035900080612046FFF798FED4F8003498421DD091
:1035A0000146194803F0D4FED4F80014174803F07C
:1035B000CFFE174803F040FF164803F03DFF05E03B
:1035C000154803F039FF154803F036FF01F0E8F81D
:1035D00000224FF08043C3F8002138BD104803F0AB
:1035E0002BFF104803F028FFFFF742FF0120FFF7F1
:1035F00085F9EBE728180020FC07002008030020CD
:10360000CDCCCCCC00C00040E4C30000F8C3000027
:1036100014C400002CC400007CC4000088C3000057
:10362000B4C30000C4C3000030B4074BD3E9002387
:103630001044054BD3E900450023AB4208BFA0422C
:10364000F7D230BC704700BFA80600200B460138F7
:1036500007282DD8DFE800F004080E12161C2228D7
:10366000164A106808607047154A10680860127999
:103670001A717047134A12880A807047124A1288DA
:103680000A807047114A1188927819809A707047A1
:103690000F4A1068086012791A7170470D4A106855
:1036A000086012791A7170470B4A106808607047F9
:1036B0000A4A03CA18605960704700BF98C40000E6
:1036C0009CC40000A4C40000A8C40000ACC4000056
:1036D000B0C40000B8C40000C0C40000A0BA00001C
:1036E00010B584B002A801F0C7FC9DF90830002B8A
:1036F0001ADB9DF80930202B4FD0222B64D19DF886
:103700000C303BB99DF80B209DF80A3043EA0223A8
:10371000334A1380334A136843F080031360002256
:10372000314B1A6004B010BD9DF80930212B29D10E
:103730009DF80C309BB92D4B1B682D4C1C4400236D
:103740000193072308E0019B01992A48415CE15459
:10375000019B0133019313465A1E002BF3D1214ADA
:10376000136843F08003136007221F4B1A60002187
:10377000084601F03BFED5E71F49535843F00203CA
:103780005350CFE700230B2BCCD81A0115495158C1
:1037900011F00F0FF0D00133F5E79DF80C3043B175
:1037A000104A136843F08003136000220E4B1A6026
:1037B000B8E707210F4801F019FEF1E70E49535809
:1037C00043F002035350ADE700230B2BAAD81A0194
:1037D0000449515811F00F0FF0D00133F5E700BF45
:1037E000C206002008050C4004050C4000050C40F2
:1037F00000010C40F40200200C050C400022014B9B
:103800001A60704714070020104B1B6A03F47043C2
:103810000F4A1268934214D00E4B1A680E4B1A606E
:103820000E4B1A68A3F5866313440D4A1360074BC9
:103830001B6A03F47043064A13600122094B1A7095
:1038400070474022034B1A60704700BF00000C40D5
:103850000407002034050C401007002030050C4000
:103860000C0700200807002010B5002219491A484B
:1038700001F0CEFB194C0023A3614FF41072184BDA
:103880001A600823174A13604FF408711832116048
:10389000083A13604122144B1A604822083B1A6010
:1038A000222218331A608822083B1A60402204330F
:1038B0001A60432214331A60C822083B1A6001F0D0
:1038C000C7FB236843F4004323604FF40012074B07
:1038D0005A6010BDE1360000B8BA000000000C408C
:1038E00008050C4000050C4028050C4000E100E0F4
:1038F000164B1B889BB2B3F5805F23D2144A138802
:103900009BB2591C89B211801249C85413889BB2CA
:10391000B3F5805F02D300220D4B1A800B4A138847
:103920009BB201339BB21380128892B20A4B1B8860
:103930009BB29A4208D9054B1B889BB2064A13805A
:10394000002070470120704700207047B206002019
:10395000B806002008080020B40600200E4B1B8883
:103960009BB2BBB10D4A13889BB2591C89B211801E
:103970000B49CB5C037013889BB21F2B02D900222A
:10398000064B1A80044A13889BB2013B9BB21380FA
:103990000020704701207047BA060020BE060020B4
:1039A0000818002038B505460024285758B1C0B281
:1039B000FFF79EFF012802D00134A4B2F5E70248C8
:1039C00003F03AFD38BD38BDC4C4000030B482B045
:1039D0004D4B1A68002A44D14C4B1B889BB2002BDC
:1039E0004FD04A4B1C88A4B2402C02D9402400E09E
:1039F0000132A24212D246490B889BB2581C80B2B7
:103A000008804448C05C444B98540B889BB2B3F583
:103A1000805FEDD300213E4B1980E9E7012383F35A
:103A200010883A4A13889BB21B1B9BB21380002359
:103A300083F31088344A1460384A1268384D1544AC
:103A40000193234608E0019B01993348415CE95406
:103A5000019B0133019313465A1E002BF3D1314BC6
:103A60001C60314B1B785BB2002B4AD02F4B1B885C
:103A70009BB2C3F120032E4A1568AB4241D300220A
:103A800008E0284B1B68402BEBD10022254B1A6025
:103A9000E7E70132AA4212D226490B889BB2581C92
:103AA00080B2088024480068845C2448C4540B8891
:103AB0009BB21F2BEDD900211E4B1980E9E7012392
:103AC00083F31088194A13881949096811FA83F396
:103AD0009BB21380002383F31088128892B2184B94
:103AE0001B889BB29A4204D9104B1B889BB2144A84
:103AF000138000230E4A13600B4A13704022114BAF
:103B00001A6002B030BC704714070020B2060020D3
:103B1000B606002008080020C406002020050C403E
:103B200000010C4024050C4008070020BA060020C4
:103B300010070020C00600200C07002008180020F5
:103B4000BC06002034050C4030B403461F4A9042A6
:103B50001BD002F58052904219D002F5805290425B
:103B600017D01A6802F00E02196821F00E011960D0
:103B7000186A10F400400ED1154911F8141091B9CB
:103B80000125134901F8145006E00024E9E7012457
:103B9000E7E70224E5E70220022806D019680A4375
:103BA0001A6030BC70470220F6E7D3F8801011F499
:103BB000004FF3D1064901EB440149780029EDD1CA
:103BC000034901EB440401206070E7E700000A406C
:103BD0001807002038B505460024B4F1805F07D2ED
:103BE0002846FFF7B1FF0346022801D10134F4E76C
:103BF000184638BD012900D9704730B4104B98429F
:103C000018D003F58053984216D003F5805398429C
:103C100014D0036803F00E03046824F00E0404605B
:103C2000084A02EB4502002454540268134303601F
:103C300030BCE1E70025ECE70125EAE70225E8E7EB
:103C400000000A401807002030B54C1C00FB04F0AF
:103C5000104D85FB00E5C017A0EBA51020441860AF
:103C600008B9012018601868082801D908201860D0
:103C70001868081A1060102803D910201060103935
:103C800019601B68E31A4FF47A7000FB03F090FB95
:103C9000F4F030BDD34D621041F041010160704736
:103CA000064B1B68026822F041020260026812F0B3
:103CB000010F02D00BB1013BF8E770470803002069
:103CC000036843F0800303604161704710B4354BD3
:103CD0001C680023026A12F4004F07D001339C4293
:103CE000F8D24FF0FF305DF8044B7047436823F083
:103CF000080343600B68002B3CD103638A6841F6DC
:103D0000FC7303EA820343634B68002B3BD0436B95
:103D100043F400534363836B23F00F030A7B134385
:103D200083638A7B4B7B43EA0223C3630A7CCB7B9E
:103D300043EA022303648A7C4B7C43EA0223436404
:103D40000A7DCB7C43EA02238364036A23F40043A5
:103D50000362036A13F4004321D1026A42F4004271
:103D60000262114A934213D8026A12F4004F0FD034
:103D70000133F6E70B8903634B89C3F30C0343F468
:103D800080434363C0E7436B23F400534363C2E7BC
:103D9000054A934201D90020A5E70120A3E70020AE
:103DA000A1E700BF08030020FEFF0F002DE9F0414E
:103DB00004460D4690461F469DF81860FFF70AFF1F
:103DC00002284CD000EB400253012344F3225A62F4
:103DD000B8F1000F2ED142000244530123440022C7
:103DE0001A6341F6FC7202EA870747F400475F63F3
:103DF00000EB4002530123444FF4A0529A632EB3C8
:103E000042000244530123449A6B42F080029A63B9
:103E100042000244530123440022DA631A645A64C4
:103E20009A6401351D6201462046FFF7E3FE01203A
:103E3000BDE8F081B9B24200024453012344196342
:103E4000C7F30C4747F440475F63D1E742000244A1
:103E5000530123449A6B22F080029A63D8E7002032
:103E6000BDE8F0812DE9F04F87B083460F46002171
:103E700005910491FFF710FF01F09EFD594B9B4502
:103E80001DD003F500539B4519D0574B9B451ED0C1
:103E90000122002355490868002102F02FFACDE9DC
:103EA0000001534B9F4200D9524F534B9F4216D8AB
:103EB000524B9F4220D94FF44873039312E0504B6A
:103EC0005B6B03F0070301229A40D317E2E74C4BE8
:103ED0005B6BC3F3021301229A40D317DAE740F277
:103EE000EE2303934FF47A73029331254FF0000AC7
:103EF000D146DFF810811EE040F26B330393F1E707
:103F0000764236E005EBD57104AB05AA4910DDF821
:103F10000C804046FFF798FEB8EB00002FD4029BC0
:103F200098422EDC029005EBD5794FEA690950B32F
:103F3000A246B046013D052D26D96E08013606FB86
:103F400007F20023DDE9000102F0D8F9002D05F0A9
:103F50000104B8BF64420444631EB3F5806FE9D224
:103F600004FB06F2D317DDE9000102F0C7F93E1A9F
:103F7000C6D4B045DEDB002EC4D03046D3E7404285
:103F8000CDE7B046D6E7A24604AB05AA494603985A
:103F9000FFF75AFE049F1FBB3E46059C3A1902FBE1
:103FA0000AA2D317DDE9000102F0A8F90546013F96
:103FB000631E1B0243EA07330AF1FF3A0AF03F028D
:103FC000134343EA8613CBF80C30CAF38313CBF8C0
:103FD00018305846FFF764FE284607B0BDE8F08F5A
:103FE0000126DAE700000A4000100A40080300201A
:103FF0003F420F0040420F0000350C0020A1070097
:104000000002004000CA9A3B70B506461546FFF70D
:1040100029FF0446012D01D0204670BD0421304601
:10402000FFF74EFEF8E770B505460E461446FFF75B
:10403000D1FD02285BD000EB400253012B44F32258
:104040005A622368002B3ED14200024453012B44A4
:1040500000221A63A16841F6FC7202EA810242F46E
:1040600020425A636368002B38D042000244530157
:104070002B445A6B42F400525A63A37B617B41EAA2
:1040800003214200024453012B44D963217CE27B8B
:1040900042EA01221A64A17C627C42EA01225A644B
:1040A000217DE27C42EA01229A64227B42F40842AA
:1040B00042F080029A6301361E6201462846FFF7ED
:1040C00099FD012070BD21894200024453012B4417
:1040D0001963628942F460425A63C3E742000244B2
:1040E00053012B445A6B22F400525A63C5E7002057
:1040F00070BD000070B505460E46194B1C68FFF7F1
:1041000069FD02282AD06B6823F008036B60420027
:10411000024453012B440C225A6201361E6200EB0A
:10412000400253012B441B6A13F4004F09D00CB119
:10413000013CF4E701462846FFF75CFD4FF0FF30F5
:1041400070BD4200024453012B4484225A621E6215
:1041500001462846FFF74EFD012070BD002070BDCE
:1041600008030020036823F00E0301F00E010B4347
:10417000036070472DE9F04182B080460F46164635
:104180001D460024012300932B46F2B2F9B24046AB
:10419000FFF70CFE28B90134B4F1805FF2D30020A0
:1041A00000E0012002B0BDE8F08138B504460D46BC
:1041B0004369006810F0800F02D003F0040333B9A4
:1041C00029462046FFF72FFF48B9002038BD114689
:1041D0002046FFF77BFD0028F8DA002038BD29468D
:1041E0002046FFF787FF012038BD38B505460C464D
:1041F000FFF7F0FC02280CD04200024453012B448C
:104200000C225A6201341C6201462846FFF7F2FC78
:1042100038BD0020F0E7000008B501F0CDFB194BD8
:104220005B6B13F0070F1AD0164B5B6B03F00703A1
:10423000012B17D0134B5B6B03F00703022B15D038
:10424000104B5B6B03F00703032B13D00D4B5B6B21
:1042500003F00703042B11D00B4B186808BD0A4B61
:10426000186808BD084B1868400808BD064B186858
:10427000800808BD044B1868C00808BD024B1868C8
:10428000000908BD000200400803002008B501F045
:1042900093FB194B5B6B13F0700F1AD0164B5B6BD3
:1042A00003F07003102B17D0134B5B6B03F07003FC
:1042B000202B15D0104B5B6B03F07003302B13D009
:1042C0000D4B5B6B03F07003402B11D00B4B186848
:1042D00008BD0A4B186808BD084B1868400808BD9F
:1042E000064B1868800808BD044B1868C00808BD54
:1042F000024B1868000908BD0002004008030020B6
:1043000008B501F059FB014B186808BD08030020EF
:1043100070B4C0F38724C4B14FF08043D3F8F431B4
:10432000DBB2012B25D0C0F38143022B40D0032BFD
:1043300040D003F1805388339B001D68C0F34416BE
:10434000B44025EA040422431A60C0F3426272B109
:10435000C0F3017303F1805384339B001C68C0F3E6
:10436000045002FA00F024EA00000143196070BC16
:104370007047C0F38143022B0AD0022B0ED0022BD0
:1043800012D0032B12D003F1805388339B00D4E763
:1043900000F01F051F2DF0D1074BCEE700F01F05E1
:1043A0001D2DECD1044BC8E7044BC6E7044BC4E712
:1043B000024BC2E7024BC0E7280200402C0200403B
:1043C00030020040024A136818431060704700BF73
:1043D0000002004000F01F0201239340800F800084
:1043E00000F18040D0F804221343C0F80432704733
:1043F000024A136C43F48033136470470002004098
:104400000A4B1B685B080021094A1160094A126DBA
:1044100030EA020203D0013BF8D1184600E0012047
:104420001BB94FF0FF32024B1A607047080300209F
:104430002007002000020040F8B506460F46104C49
:10444000256D05F01005236843F004032360102058
:10445000FFF7D6FF236943F007032361216A21F0A8
:104460000F0139432162206920F0070030432061A9
:1044700001F0A2FA1DB9236823F004032360F8BDFC
:104480000002004082B0124B1B680193114B1B6C61
:1044900013F4A02F19D113F4003F02D00E4802B03C
:1044A0007047C3F3813202A90A4412F8042CC3F303
:1044B0000800811CC3F34423084800FB01F003FB00
:1044C0000223B0FBF3F0C000E9E70020E7E700BFFC
:1044D000D8C4000000020040001BB700C0C62D0079
:1044E0002DE9F84F04468A46FFF782FFE4B94C4AAB
:1044F000136843F0010313600120FFF781FF4FF0C1
:10450000000E484B5344484A934263D9002C40F074
:10451000828044F21E22424B1A640420FFF770FF8F
:10452000FFF7B0FFBDE8F88F3D4A136843F004037E
:1045300013601020FFF764FF4FF4002EE1E74FEA0D
:104540008A0C44E04FEA4A0C41E0CB1A12E00132F7
:1045500040F201239A4219D8C0F35D0303FB02F332
:1045600030491944314DA942F1D84FEA9C018B42A0
:10457000EBD95B1A9F42EAD923B14C464646934693
:104580001F46E4E74C46464693461F4608F101089D
:10459000B8F1200F0CD85FB12548B0FBF8F0A0F5BA
:1045A0007413A3F51063234A9342EFD80222CFE796
:1045B00009F10109B9F1040F15D8A7B1B9F1030F39
:1045C000F6D0B9F1040FBAD0B9F1020FBAD04FF05A
:1045D0000208DDE7D44600242646A3464FF0FF3705
:1045E0004FF00109E6E7631E4EEA8333721E43EA89
:1045F0004223ABF102021343094A13640420FFF77C
:10460000FFFE04FB06F40A48B0FBF4F000FB0BF0DD
:104610004000BDE8F88F084A014B1A647DE700BFEF
:1046200000020040800F05FD8074D21AC068780433
:10463000001BB70000093D001E42080070B5064689
:104640001B4B1D6D05F010051A4B984200D91E46F4
:10465000174C236843F0040323601020FFF7D0FEBB
:10466000236943F007032361236A23F00F032362C6
:10467000236813F0010F10D031460020FFF730FF00
:10468000044600210220FFF7D7FE25B9084A136827
:1046900023F004031360204670BD31464FF4002020
:1046A000FFF71EFF0446024B1D6D05F01005E8E7FD
:1046B0000002004000B0710B10B4074CA26001432F
:1046C0000B4343F001032360236843F0020323609C
:1046D0005DF8044B704700BF001003400D4B1B6892
:1046E00003F04043B3F1804F10D008D9B3F1004F2D
:1046F00008D0B3F1404F03D1064BD86870470BB1D7
:1047000000207047034BD86880B27047014BD868CF
:10471000C0B270470010034010B40E4B1B68002459
:104720000D4A1460026D22F480720265026D11431D
:1047300041F001010165D0F8102112F0010F05D1FF
:10474000013BF8D14FF0FF32034B1A605DF8044B88
:10475000704700BF080300202407002010B4203158
:1047600050F8214024F4F81424F03F0440F821408C
:1047700050F8214013431C4340F821405DF8044B9E
:104780007047203150F8213023F07F4340F821302A
:1047900050F8213043EA026240F8212070470000BF
:1047A000024A136823F001031360704700C0004001
:1047B00000221B4B1A601B4B2222DA604FF40012BE
:1047C0005A60194A9A6001221A61184B1B6802F15B
:1047D000CC32A2FB0323DB089B005A1E002B06DD14
:1047E000104BD3F8C010134611F0010FF5D1002A79
:1047F00006DD0C4B1B6813F0400F06D100207047FC
:104800004FF0FF30064B18607047064A136843F0BC
:10481000400313604FF0FF30014B1860704700BF3A
:104820002818002000C0004003AA550008030020FB
:1048300008B500221B4B1A60B0F5001F20D01A4BA0
:104840002222DA60586001221A61184B1B6802F1BB
:10485000CC32A2FB0323DB089B005A1E002B06DD93
:10486000114BD3F8C010134611F0010FF5D1002AF7
:1048700009DD0D4B1B6813F0400F09D1002008BD66
:10488000FFF796FF08BD4FF0FF30064B186008BDDC
:10489000054A136843F0400313604FF0FF30014BAB
:1048A000186008BD2818002000C000400803002040
:1048B000024A136843F001031360704700C00040D0
:1048C0000022114B1A60114BDA60586001221A6104
:1048D0000F4B1B6802F1CC32A2FB0323DB085B0009
:1048E0005A1E002B06DD094BD3F8C010134611F0F9
:1048F000010FF5D1002A02DD044B986870474FF094
:10490000FF30014B186070472818002000C000409D
:1049100008030020014B5869704700BF00C00040E9
:104920000022194B1A60194B2122DA6058609960F5
:1049300001221A61164B1B6802F1CC32A2FB032341
:10494000DB085B005A1E002B06DD104BD3F8C010AD
:10495000134611F0010FF5D1002A06DD0B4B1B6C3D
:1049600013F0400F06D1002070474FF0FF30064B88
:1049700018607047054A136C43F0400313644FF00E
:10498000FF30014B186070472818002000C000401D
:104990000803002010B40022274B1A60274B802206
:1049A0001A642822DA605860996001221A61244B47
:1049B0001A6852001346591E002B06DD1F4BD3F810
:1049C000C0400B4614F0010FF5D100290BDC4FF06D
:1049D000FF30194B18605DF8044B7047002A14DD56
:1049E000164B9B68B3B9154B0821D960586001215B
:1049F000196113465A1E002BF0DD104BD3F8C0107E
:104A0000134611F0010FF5D1E8E74FF0FF300A4BE4
:104A10001860E0E7094B9A680A4B9A4209D0074BA5
:104A20009A68094B9A4204D04FF0FF30024B18604D
:104A3000D1E7024B9868CEE72818002000C000405C
:104A400008030020FFFF1FA1000010A100230F2B6F
:104A500015D870B402E001330F2B0ED801249C400E
:104A60008C43F8D104685D000326AE4024EA0604B6
:104A700002FA05F52C430460EDE770BC70477047FF
:104A800000230F2B16D870B402E001330F2B0FD880
:104A900021FA03F414F0010FF7D0846A5D000326B5
:104AA000AE4024EA060402FA05F52C438462ECE7E2
:104AB00070BC7047704700230F2B16D870B402E00B
:104AC00001330F2B0FD821FA03F414F0010FF7D0A4
:104AD000046B5D000326AE4024EA060402FA05F5E5
:104AE0002C430463ECE770BC7047704738B504464C
:104AF0000D460E4B984216D0FFF78EFB00EB80025E
:104B00005300AD00B3FBF5F30533094AA2FB0323C1
:104B1000DB085A1E2261226842F0400222609B009C
:104B2000B0FBF3F038BDFFF7B1FBE7E7001008403A
:104B3000CDCCCCCC436943F001034361704703689B
:104B400043F080030360704710B5044601681048C5
:104B500002F0FEFB61680F4802F0FAFBA1680E4804
:104B600002F0F6FBE1680D4802F0F2FB21690C4807
:104B700002F0EEFB61690B4802F0EAFBA1690A480A
:104B800002F0E6FBE169094802F0E2FB10BD00BF5C
:104B900014C5000020C500002CC5000038C5000069
:104BA00044C5000050C500005CC5000068C5000099
:104BB00008B50446034802F03FFC2046FFF7C4FF57
:104BC000FEE700BFFCC40000074B0420714608420A
:104BD00004D0EFF309807146FFF7EABFEFF30880D6
:104BE000FFF7E6BFFEE700BFB14B000030B413464D
:104BF00005E091F900500D4B1D60234601315C1E0C
:104C00008BB10A4B9B6913F4000FFAD191F9003074
:104C10000A2BEED10D25054B1D60044B9B6913F447
:104C2000000FFAD1E5E7104630BC7047000007409E
:104C3000044B9B6913F4804FFAD1024B1B680B7035
:104C400001207047000007402DE9F84304460D4657
:104C500017469946089E036E23F001030366B9F1D7
:104C6000200F3ED0FFF74CFB8046002D40F0E58042
:104C70000023A36045EA09253D4345F00105256071
:104C8000B0420FD88C4B9C422ED08C4B9C4233D0E0
:104C90008B4B9C4238D08B4A936923F4405343F4A6
:104CA00000539361844B9C4236D0844B9C424CD041
:104CB000834B9C4262D0834B9B6913F4405F00F0AE
:104CC0008480804B9B6903F44053B3F5805F70D0C0
:104CD0007C4B9B6903F44053B3F5005F6CD07A487A
:104CE00074E04FF00009BDE7764A936923F0300382
:104CF00043F020039361D5E7724A936923F0C00320
:104D000043F080039361CDE76E4A936923F44063D7
:104D100043F400639361C5E76A4B9B6913F0300F5E
:104D20004DD0684B9B6903F03003102B07D0654BC7
:104D30009B6903F03003202B04D0634846E0FFF763
:104D4000A1FB43E0FFF7A2FA40E05E4B9B6913F042
:104D5000C00F36D05B4B9B6903F0C003402B07D0DC
:104D6000584B9B6903F0C003802B04D056482DE0BC
:104D7000FFF788FB2AE0FFF74FFA27E0514B9B69CA
:104D800013F4406F1FD04F4B9B6903F44063B3F59E
:104D9000806F08D04B4B9B6903F44063B3F5006F01
:104DA00004D0494812E0FFF76DFB0FE0FFF76EFA01
:104DB0000CE0FFF767FB09E0FFF72EFA06E0424838
:104DC00004E0414802E0404800E03F48B04518D9BF
:104DD000B0421AD9EEB100EB80025300B3FBF6F3F8
:104DE00005333A4EA6FB0323DB085A1EFF2A19D9C6
:104DF00063686FEA53236FEA43236360000ABDE8E8
:104E0000F88300236360BDE8F88300236360BDE896
:104E1000F88363686FEA53236FEA43236360000AF1
:104E2000BDE8F883616821F4FF7121F001010A43B4
:104E30006260B0FBF3F0BDE8F8830023A36045EAAD
:104E400009253D4345F00105256063601A4B9C42EE
:104E500010D01A4B9C4218D0194B9C4220D0194AB2
:104E6000936923F4405343F400539361FFF7D4F95B
:104E7000BDE8F883134A936923F0300343F020031D
:104E80009361FFF703FABDE8F8830E4A936923F0B4
:104E9000C00343F080039361FFF7BEF9BDE8F883D8
:104EA000084A936923F4406343F400639361FFF776
:104EB000EDF9BDE8F88300BF001006400020064071
:104EC0000030064000020040001BB700CDCCCCCC27
:104ED000836823F00D030A43134343F00803836000
:104EE00070474FF08042936A23F01F03184390628B
:104EF00070470000F0B585B004460E463C4B0FCB22
:104F000004AD05E90F003B4B9C4232D03A4B9C422A
:104F100037D03A4B9C423CD0394B9C4241D0394B24
:104F20009C4246D0384B9C424BD000273D46002344
:104F300023630323E360A36823F4702323F0F003C7
:104F4000A360012D44D096B104AB03EB850555F861
:104F5000102C0137B2FBF7F202EB5603B3FBF6F36A
:104F6000023BB3F5803F3BD243F04053636205B050
:104F7000F0BD264B5D69C5F301651F6AC7F30327C2
:104F8000D5E7224B5D69C5F381651F6AC7F3033717
:104F9000CDE71E4BDD69C5F301651F6B07F00F07F9
:104FA000C5E71A4BDD69C5F381651F6BC7F30317AE
:104FB000BDE7164BDD69C5F301751F6BC7F303270A
:104FC000B5E7124BDD69AD0F1F6BC7F30337AEE7D3
:104FD000FFF758FA04AB03EB850343F8100CB2E774
:104FE00002EBC602B2FBF6F63609023E6662BEE787
:104FF00074C5000000000740001007400020074073
:1050000000300740004007400050074000020040C9
:105010000A4B18600A4B19600A4B1A600368DA7968
:10502000094B1A60094B4FF4DA621A61D3F89020E9
:1050300042F00102C3F89020704700BF2C180020F6
:105040006007002068070020FC02002000000C40E0
:10505000084BD3F8902022F00102C3F890204FF4BF
:10506000FA621A6140F20F1159601A680A431A6015
:10507000704700BF00000C4010B483B000230193C0
:10508000082308E0019B0199064C615CC154019B17
:105090000133019313465A1E002BF3D103B05DF880
:1050A000044B70474C07002030B482B0254B1B687E
:1050B0008B4227D2234B1A680244234C22601A6881
:1050C000891A224A116022490A6842F080020A6065
:1050D000204A1268204C14441B680022009207E00A
:1050E000009B0099415CE154009B013300931346FF
:1050F0005A1E002BF4D1134B1A68184B1A6002B0D9
:1051000030BC70470023104A1360104A1360104CE3
:10511000226842F0800222600E4A12680E4D154449
:1051200001930B4607E0019B019C045DEC54019B3D
:105130000133019313465A1E002BF4D1074B19601B
:10514000DDE700BFFC0200202C0700203007002014
:1051500008050C4000050C4000010C4004050C4003
:1051600010B50022594B1A70594BDA79997901EB35
:105170000222DB78013B212B00F29C80DFE803F068
:10518000111B749A9A9A9A9A9A9A9A9A9A9A339A14
:105190009A9A9A9A9A9A9A9A9A9A9A9A9A9A9A9A6F
:1051A00049594C4B1B68122A28BF12221146186815
:1051B000FFF77AFF10BD474B1B685868C3788178AA
:1051C00001EB03218A420AD9434B1A68B1FBF2F37F
:1051D00002FB131323B901223C4B1A7000E0114665
:1051E000FFF762FF10BD3B4B1B68186930B10C2AFA
:1051F00028BF0C221146FFF757FF10BD374A13682E
:1052000043F0020313601032136843F0020313608B
:1052100010BD304B1B6899692D48007951F820006A
:105220005B68092A28BF092211461844FFF73CFF92
:1052300010BD284B18684169254B1B7951F8231084
:105240008A420AD9244A1468B1FBF4F204FB121210
:1052500022B901241D4A147000E01146C26852F8B8
:105260002300FFF721FF10BD194B9B78032B16D8A5
:1052700018490968896851F8230001788A420AD9D7
:10528000154B1A68B1FBF2F302FB131323B9012289
:105290000E4B1A7000E01146FFF706FF10BD0F4AD3
:1052A000136843F0020313601032136843F00203E3
:1052B000136010BD094A136843F0020313601032F3
:1052C000136843F00203136010BD00BF34070020D1
:1052D0004C0700202C180020FC0200200C050C407C
:1052E000384B1B68002B4ED010B483B0354B1A6876
:1052F000354B1B689A4227D9344B1B6834481844F5
:10530000344B1C68304B1B680022009207E0009B66
:105310000099615CC154009B0133009313465A1EEF
:10532000002BF4D1284B19682B4A116018682949C1
:105330000A6802440A601968224A13685B1A1360FB
:1053400003B05DF8044B7047204B1B68204818449D
:10535000204B1C681B4B1B680022019207E0019B3D
:105360000199615CC154019B0133019313465A1E9C
:10537000002BF4D1134B1968174A1160002215490C
:105380000A601A60DCE7154B1B781BB9134B5B787E
:10539000052B09D0124B1B78002BD4D000230E4ACA
:1053A00013600F4A137070470E4B9B680E4A1268C9
:1053B0009342EFD0002BEDD10B4B1A68094B9A604A
:1053C000E8E700BF30070020FC02002000050C4089
:1053D00000010C402C07002004050C404C07002065
:1053E0003407002000000C4054070020054B1860D3
:1053F0000022054B1A60054B1960054B1A68054BD6
:105400001A607047380700203C0700204007002042
:10541000FC02002014050C4070B500239E4A136066
:105420009E4A13609E4B1A7812F0800F12D19C4B4B
:105430005B78013B0A2B00F27181DFE813F0A500D5
:105440006F0101016F01E3006F016F016F01F00057
:105450006F015C015B780A2B00F28B80DFE803F0C0
:105460003789898989891B89068922008D4B1968AA
:105470008D4B1B68DBB28D4A8B5402F58162136839
:1054800043F0800313600122894B1A600021084613
:10549000FFF7ACFF70BDFFF763FE00210846FFF782
:1054A000A5FF70BD7F4B1968824B1B68DBB27F4A3A
:1054B0008B5402F58162136843F08003136001226C
:1054C0007B4B1A6000210846FFF790FF70BD802AD1
:1054D00015D0812A29D0822A2ED0724B1A6800203A
:1054E000A3F2FF33D054744A136843F0800313606F
:1054F00002226F4B1A600146FFF778FF70BD6F4BB9
:105500001B685B68DB7913F0400200D0012213F0C6
:10551000200F04D06A4B1B785B00DBB21A43614B4F
:105520001968A3F58063CA54D7E75E4B1A68002157
:10553000A3F58063D154D0E7594A147904F00F04DD
:10554000584A166800220B2A0BD810015A494518F0
:10555000415801F00F01A14201D00132F3E7594D4A
:1055600005442A6812F0020F00D001234F4AB354B9
:10557000B3E7544A136843F0020313601032136810
:1055800043F00203136070BD454B9B785BBB444BFB
:10559000197901F00F01002200E001320B2A24D812
:1055A000130103F1804303F54023D3F8083503F0DA
:1055B0000F039942F1D1444B1B68D34013F0010F04
:1055C000EBD1130103F1804303F54023D3F80C051D
:1055D00020F00200C3F80C05D3F8080520F0800085
:1055E000C3F80805D9E7012B08D0334A136843F004
:1055F0008003136000222E4B1A6070BD0022304BD6
:105600001A70F2E7264B9A78304B1A602A4A1368D0
:1056100043F0800313600022254B1A6070BD204BBD
:105620009A78214B1A602A4B1B6803B19847224A8B
:10563000136843F08003136000221D4B1A6070BD95
:1056400012F00F0F03D1164B9B78032B13D0144B82
:105650009B78002B40D1124B187900F00F000023EB
:105660000B2B3BD81901144A8A5802F00F028242D0
:105670000BD00133F4E70A4BDB78002BE7D1154A56
:10568000136843F006031360E1E70E4A8B5843F0BA
:1056900002038B5022E000BF2C07002030070020BF
:1056A0004C07002000050C405C07002000010C4066
:1056B00004050C405807002008050C402C18002059
:1056C000480700200C050C40280700205407002044
:1056D0006407002000D00440012B08D0154A13684D
:1056E00043F0800313600022134B1A6070BD012247
:1056F000124B1A70F2E7124B9A78124B1A60124B47
:105700001B6813B10F4A106898470A4A136843F0A0
:10571000800313600022084B1A6070BD0B4A1368A7
:1057200043F0020313601032136843F00203136066
:1057300070BD00BF08050C4004050C404807002060
:105740004C07002058070020680700200C050C407B
:1057500000B583B000231B4A13600193082309E0BE
:10576000019B01981849405C1849C854019B0133BA
:10577000019313465A1E002BF2D1144B1B7803F0F1
:105780006003202B12D0402B16D053B1104A13685F
:1057900043F0020313601032136843F002031360F6
:1057A00001E0FFF739FE03B05DF804FB094B1B680D
:1057B000002BF8D09847F6E7074B1B68002BF2D078
:1057C0009847F0E74407002000010C404C070020F8
:1057D0000C050C40600700206C070020224B1B6A60
:1057E00003F0F003214A1268934237D01E4B1B6A24
:1057F00003F0F0031D4A13601D4B1A681D4B1B6814
:105800009A422AD230B482B01B4B1D68043B1B68FD
:105810001A4A10681A4C1C44002301932B4607E0D7
:10582000019B0199615CC154019B013301931346B3
:105830005A1E002BF4D12844104B18600C4B1A68E8
:1058400015441D601A680B4B1B689A4203D20D4B1E
:105850001A68094B1A6002B030BC7047094B1A68CD
:10586000054B1A60704700BF00000C404407002041
:105870003C0700204007002014050C40380700209A
:1058800000010C40FC0200200022114B1A60114B59
:105890001A60114B1A60114B1A60114B1A60114BB0
:1058A0001A60114B1A605A600BE0130103F1804338
:1058B00003F54023D3F8081521F08001C3F808153B
:1058C00001320B2AF1D90022084B9A60704700BFC1
:1058D0002C07002030070020380700203C0700205C
:1058E00040070020280700204C07002000000C4043
:1058F00010B4064C616040EA420242EA031343F0EE
:10590000800323605DF8044B704700BF0000044033
:1059100008B500F07BFE582303604FF0FF3008BD50
:1059200008B500F073FE582303604FF0FF3008BD48
:1059300008B500F06BFE58230360002008BD08B5D1
:1059400000F064FE582303604FF0FF3008BD0000F4
:105950001249134A134B9A42BEBF51F8040B42F846
:10596000040BF8E7104859210160162101608821D5
:1059700001600E48416841F4804141600C48416833
:1059800041F002014160416841F00401416000F0D2
:1059900041F8054800210160FAF762FCE4C8000004
:1059A000000000200C050020000100400002004023
:1059B00000700040FEE700BF08B5FEF763FD0F4B27
:1059C00018600F4B1B6903F00703022B02D00D4A2E
:1059D00052F823000A4B1B6A03F00F030133B0FB9C
:1059E000F3F0094B186000F5F42000F59070074BB8
:1059F000A3FB0030800C064B186008BD0403002098
:105A0000000200400C0300200803002083DE1B433B
:105A100000030020174AD2F8883043F47003C2F81C
:105A20008830154AD36C23F00F0343F00803D36486
:105A3000124BD3F8982042F48022C3F898209A6839
:105A400042F002029A600E4AD2F8041101F0F731D6
:105A5000C2F80411D2F8081101F0F731C2F80811A8
:105A60009A6822F002029A60064A136823F0F00353
:105A70001360704700ED00E000C0004000020040ED
:105A8000001004404041004081F0004102E000BFAE
:105A900083F0004330B54FEA41044FEA430594EAEE
:105AA000050F08BF90EA020F1FBF54EA000C55EA29
:105AB000020C7FEA645C7FEA655C00F0E2804FEAFA
:105AC0005454D4EB5555B8BF6D420CDD2C4480EADC
:105AD000020281EA030382EA000083EA010180EA0C
